:020000040000FA
:10000000020DE3784DE6FE08E67DFFC39401EE9411
:1000100000502B7850E6640118467022784CE618A0
:1000200046701B7849E6B481157847E6B4060F7B25
:10003000FF7A1679A97D017C001214BAE4FDAF05A0
:1000400022C322020A3A8F29752AFDA807E6FFC4B7
:100050001354036003020106EFC413131354012069
:10006000E003020106E6541F64016003020106E892
:1000700004F8E624FA6003020262E5292402F9E7A3
:1000800064227038E5292404F8E6FE08E6600302DD
:100090000262EE60030202627BFF7A1679AFE52905
:1000A0002406F8E6FE08E6FFC374459FE49E500A66
:1000B0007C007D457E007F4580458043E529240204
:1000C000F9E764216003020262E5292404F8E6FEF0
:1000D00008E66003020262EE60030202627BFF7ABE
:1000E000177918E5292406F8E6FE08E6FFC3740927
:1000F0009FE49E500A7C007D097E007F0980008E6F
:100100003E8F3F020258A829E6FFC413540364013E
:100110006003020262EF541F64016003020262E89E
:100120002405F9E719476003020262E804F8E614BF
:10013000606114700302022424F870030201FB04BE
:100140006003020262E5292402F8E6FC08E6FDEC01
:1001500064026003020262AF05EF6003020262E51F
:10016000292407F9E7640119476003020262A829FC
:10017000E6C4131313540130E0030202627B007AD9
:1001800000790D752F00753001D205E4FF120D5670
:1001900002025FE5292402F8E6FC08E6FDEC6401B2
:1001A0006003020262AF05EF6003020262E52924E8
:1001B00007F9E7640819476003020262A829E6C448
:1001C000131313540120E0030202622001062002EF
:1001D00003300312E50E75F008A424B2F974173544
:1001E000F0FA7BFF80067BFF7A1779AA753E0075CF
:1001F0003F08C205E4FF1208D18064E5292402F813
:10020000E6FE08E6705CE5292407F9E71947705215
:10021000A829E6FDC4131313540120E045EEFF1294
:1002200015A2803BE5292403F9E719477034E52935
:100230002407F9E7640119477028A829E6FFC413C9
:100240001313540130E01B1216A68F0D7B007A00A9
:10025000790D753E00753F01C205E4FF1208D1E437
:10026000F52AAF2A22E709F608DFFA8046E709F205
:1002700008DFFA803E88828C83E709F0A3DFFA80EA
:1002800032E309F608DFFA8078E309F208DFFA8042
:100290007088828C83E309F0A3DFFA806489828A04
:1002A00083E0A3F608DFFA805889828A83E0A3F20C
:1002B00008DFFA804C80D280FA80C680D4806980C2
:1002C000F28033801080A680EA809A80A880DA804D
:1002D000E280CA803389828A83ECFAE493A3C8C59A
:1002E00082C8CCC583CCF0A3C8C582C8CCC583CC9A
:1002F000DFE9DEE7800D89828A83E493A3F608DFD5
:10030000F9ECFAA9F0EDFB2289828A83ECFAE0A3EA
:10031000C8C582C8CCC583CCF0A3C8C582C8CCC52B
:1003200083CCDFEADEE880DB89828A83E493A3F270
:1003300008DFF980CC88F0EF60010E4E60C388F0D2
:10034000ED2402B4040050B9F582EB2402B4040099
:1003500050AF23234582239002B573BB01068982E7
:100360008A83E0225002E722BBFE02E32289828ACE
:1003700083E49322BB010CE58229F582E5833AF5FB
:1003800083E0225006E92582F8E622BBFE06E92535
:1003900082F8E222E58229F582E5833AF583E49347
:1003A00022BB0110E58229F582E5833AF583E0F569
:1003B000F0A3E0225009E92582F886F008E622BB86
:1003C000FE0AE92582F8E2F5F008E222E5832AF543
:1003D00083E993F5F0A3E99322A42582F582E5F061
:1003E0003583F58322BB010789828A8302043E504C
:1003F00005E9F8020435BBFE05E9F80204478982E5
:100400008A83020450BB010DE58229F582E5833A17
:10041000F58302043E5007E92582F8020435BBFE4D
:1004200007E92582F8020447E58229F582E5833A47
:10043000F583020450E6FB08E6FA08E6F922E0FB41
:10044000A3E0FAA3E0F922E2FB08E2FA08E2F922CB
:10045000E493FB740193FA740293F9228E298F2A94
:10046000752B00752C02E4F52DF52EF52F75300156
:1004700078317C00FD7BFF7A187929FE7F08120312
:10048000351215661215D540030205F320000C2025
:1004900001092002062003033004067E007F01804C
:1004A000047E007F008E2D8F2E30003690181A7536
:1004B000F005E5301203D9E52F75F005A42583F585
:1004C00083E493F539C200B402067E007F00800CFD
:1004D000052CE52CAE2B7002052B14FF74312FF880
:1004E000A63930013690181B75F005E5301203D996
:1004F000E52F75F005A42583F583E493F539C20152
:10050000B402067E007F00800C052CE52CAE2B701B
:1005100002052B14FF74312FF8A6393002369018DB
:100520001C75F005E5301203D9E52F75F005A425FB
:1005300083F583E493F539C202B402067E007F009E
:10054000800C052CE52CAE2B7002052B14FF7431AA
:100550002FF8A63930033690181D75F005E53012D6
:1005600003D9E52F75F005A42583F583E493F539C8
:10057000C203B402067E007F00800C052CE52CAE81
:100580002B7002052B14FF74312FF8A63930043676
:1005900090181E75F005E5301203D9E52F75F005AA
:1005A000A42583F583E493F539C204B402067E00E2
:1005B0007F00800C052CE52CAE2B7002052B14FF60
:1005C00074312FF8A639E52E452D600AD2097B003B
:1005D0007A00793180101216885003300915C2094B
:1005E0007BFF7A1779AA753E00753F08C2057F0127
:1005F0001208D122E4FDFC752EFF7849E664806084
:1006000003020701784BE6FE08E6F52AEEFFE460F8
:10061000030206DFEF24FE602A14604E240260030A
:100620000206DFE52A60030206DF7860860308E63B
:10063000FA08E6F98B2B8A2CF52D12035B7C00FD62
:100640000206DFE52A60030206DF7863860308E618
:10065000FA08E6F98B2B8A2CF52D9000021203A1E3
:10066000FAE5F0FFEAFCEFFD80757866860308E6A0
:10067000FA08E6F975F003E52AA4F58285F08312FD
:1006800004058B2B8A2C892DE52A700BFC7D0478C0
:1006900051E65480F68048784DE6FE08E6FF4E604D
:1006A0000AEF64097003EE64047034E52AC37846E7
:1006B00096502CAB2BAA2CA92D9000011203747C10
:1006C00000FD12035B547FFF7851E654804FFFF624
:1006D0007401252DF52DE4352CF52CEF4480F6ED35
:1006E0004C601E784FE6FE08E6FFD3ED9FEC9E407F
:1006F00004AC06AD07AB2BAA2CA92D1214BAE4F555
:100700002EAF2E227858E61392057855E6FE08E6BD
:10071000FFC39440EE940040047F4080008F298501
:10072000292A7851E6FF547F64017068EF30E7268C
:1007300008860308E6FA08E6F9C2077D02E4FF121C
:100740000FD67854740226F618E436F615291529C2
:100750007851E6547FF6E4F52BE529C313FFE52B2A
:10076000C39F504D7852860308E6FA08E6F9C2079F
:100770007D01E4FF120FD67854740126F618E43692
:10078000F67BFF7A1679A9C2077D01E4FF120FD626
:10079000052B80C57852860308E6FA08E6F9C207F9
:1007A000AD29E4FF120FD67854E52926F618E43671
:1007B000F67858E654FBF6C37856E6952AFF18E615
:1007C0009400FEF608EFF64E701EE52A64406018AD
:1007D00075961175970AE59620E7FB78577601E440
:1007E0007851F67858F6800B759611759702E59654
:1007F00020E7FB300514E52AFB7A007855E6F53052
:1008000008E6F531E4FDFF12162322752AFF784B26
:10081000E6FC08E6FDEC60030208CE7849E6541FCA
:1008200060030208CE7850E6184660030208CE182E
:10083000E6184660030208CE7847E664047048ED87
:100840004C60197863860308E6FA08E6F99000051B
:10085000120374784C66700218E67072784CE67871
:1008600045F67863860308E6FA08E6F99000051273
:100870000374784C66700218E67050D20512152584
:100880007F0612139280447847E664067040784BE6
:10089000E6FE08E6FF4E60177863860308E6FA086E
:1008A000E6F9900005120374B50723E4B5061F7836
:1008B0004CE67845F6784CE61846700A7F04121329
:1008C0009212143C8005C205121525E4F52AAF2AC0
:1008D000228F3A8B3B8A3C893DE53A6015146012C1
:1008E00080007BFF7A1179657D7B7C021216AB7FDD
:1008F000FC22E53A600A7847E6640660037FF72247
:10090000E53A75F007A42452F9AF01EF2405F8E6A3
:10091000FE6401600AEEB405037FFB227FFE22E540
:10092000E6A2E1920653E6FDAA3CA93DA807A63B34
:1009300008A60208A601EF2403F8A63E08A63FEF8A
:100940002405F87602A205E4335401FEEF2406F8EC
:10095000E654FE4EF6E53A14600B04702C7858E627
:100960004404F68024D3E53F9440E53E94004004DF
:100970007D408004AF3FAD077859860308E6FA084A
:10098000E6F9D2077F01120FD630060343E6027F55
:1009900000227F011216461216165010759611E4A9
:1009A000F597E59620E703020A3980F6785EE6645B
:1009B000026003020A39785CE6FE08E6FFD3944041
:1009C000EE940040047F4080008F297E00C3785D54
:1009D000E69FF618E69EF618EF26F618EE36F6783D
:1009E0005FE6139205785CE6FE08E6FFD39400EE1E
:1009F00094004024D3EF9440EE940040047D408066
:100A000004785DE6FD7859860308E6FA08E6F9D22F
:100A1000077F01120FD68009785FE654FEF618763C
:100A200001300515E529FB7A00785CE6F53008E62B
:100A3000F531E4FD7F0112162322C0E0C0F0C0832F
:100A4000C082C0D075D000C000C001C002C003C0C9
:100A500004C005C006C0071216518F2512165C8F00
:100A6000261216678F271216728F28E52530E3208D
:100A700012169C12045C7858E6FF30E10618E66412
:100A800003600AEF30E2097857E6B4020343260117
:100A9000E52530E20C121361E5C9A2E640034325C7
:100AA00001E52530E10312168FE52530E00312152C
:100AB000B4E52630E103120992E52630E003120B7B
:100AC00085AF28121646D007D006D005D004D00333
:100AD000D002D001D000D0D0D082D083D0F0D0E0EE
:100AE000328B228A23892453E6FD1216AEE4FF746A
:100AF000452FF8E4F60FBF24F6AB22AA23A924124F
:100B000003E57860A60308A60208A601AB22AA2383
:100B1000A9249000031204057863A60308A602081E
:100B2000A601AB22AA23A924900006120405786628
:100B3000A60308A60208A601AB22AA23A9249000B6
:100B4000091203747846F653A9CF43D7207596014E
:100B5000759708E59620E7FB75960B75970FE59658
:100B600020E7FB12163BE5C9A2E67847500476035E
:100B70008002760143E602759601759701E596209D
:100B8000E7FB7F0022E4FF1216461215FC40051217
:100B900015EF501D759611E4F597E59620E7FB7566
:100BA0009611759780E59620E7FB78577601E40863
:100BB000F612162F505F7858E6FF30E30280537824
:100BC00057E66401703E7851F61210407F491200DA
:100BD00046BFFD147849E6FFC41354037005120E96
:100BE0006F8032121551802D7849E620E72778571B
:100BF000E6640360207850E6184660197858E644A9
:100C000008F680117857E6B40305120CBF80067809
:100C100058E64402F67857E6B40208121609400373
:100C200012070422752AFF7850E664021846600312
:100C3000020CBC784CE618466003020CBC7849E60E
:100C4000FF30E7787847E6C394044070E4F50BF58D
:100C50000CEF541F1460181460232402704F784E58
:100C6000E6184670481200415040430B01803BC3D8
:100C7000784EE6940118E694005032802D784DE6C7
:100C8000FE08E6FFAC06547F4C70087847E6B404D3
:100C90000280177847E6B40614EF247F700F785E61
:100CA000E6B40606750B01750C00E4F52AE52A701A
:100CB0000BFB7A00790B7D02FC1214BAAF2A227862
:100CC00058E613920512167D8F29C37856E69F18B1
:100CD000E69400500E7857760108E64402F6752A2D
:100CE000F2805A7852860308E6FA08E6F9AD29E45C
:100CF000FF12124DAF297E007854EF26F618EE361B
:100D0000F6C37856E69FFF18E69EFEF608EFF6E477
:100D1000F52AEF4E701CE529644060167596117532
:100D20009748E59620E7FB7857760108E654FEF6EB
:100D3000800B759611759740E59620E7FB300515F9
:100D4000E529FB7A007855E6F53008E6F531AD2A5D
:100D5000E4FF121623228F2B8B2C8A2D892EE52B54
:100D6000601280007BFF7A1179657D1A7C01121672
:100D7000AB7FFC22E52B600A7847E6640660037FC0
:100D8000F722E52B75F007A42452F9AF01EF2405F3
:100D9000F8E6FE6401600AEEB405037FFB227FFEE5
:100DA00022E5E6A2E1920653E6FDAA2DA92EA807A8
:100DB000A62C08A60208A601EF2403F8A62F08A671
:100DC00030EF2405F87603A205E4335401FEEF2446
:100DD00006F8E654FE4EF654F7F630060343E602F4
:100DE0007F0022787FE4F6D8FD758168020E2A0222
:100DF00012FDE493A3F8E493A34003F68001F20804
:100E0000DFF48029E493A3F85407240CC8C333C447
:100E1000540F4420C8834004F456800146F6DFE4B2
:100E2000800B01020408102040809015C5E47E016B
:100E30009360BCA3FF543F30E509541FFEE493A325
:100E400060010ECF54C025E060A840B8E493A3FA37
:100E5000E493A3F8E493A3C8C582C8CAC583CAF0C3
:100E6000A3C8C582C8CAC583CADFE9DEE780BEE47D
:100E7000F529784AE6B40C00506A900E81F82828CB
:100E800073020EA5020EAC020EE4020EB3020EE4D3
:100E9000020EBA020EC1020EE4020EC8020ECF020A
:100EA0000ED6020EDD120C248F29803B120EF78F16
:100EB000298034120F698F29802D1210A48F298068
:100EC000261205F48F29801F1212068F298018120E
:100ED000080B8F2980111200038F29800A1213300A
:100EE0008F2980037529FFE4FF121646E529B4FF18
:100EF00003121551AF2922752AFF7850E618467063
:100F0000657849E6541F24FE705C784CE6184670FC
:100F100055784DE6FE08E6547FFF4E700D7847E6A3
:100F2000C394044005E4F52A803CC3EF9402EE9498
:100F30000050337847E66406702CF52A784EE65464
:100F40007FFF121646784EE630E70B7596117597BF
:100F500040E59620E7FB784EE6247F7009785EE650
:100F6000640260027601AF2A22752AFF7850E618E3
:100F70004670607849E6541F24FE7057784DE6FEAF
:100F800008E6547FFF4E700D7847E6C39404400591
:100F9000E4F52A803EC3EF9402EE94005035784C7D
:100FA000E61846702E7847E664067027F52A784ED4
:100FB000E6547FFF121646784EE630E70B75961121
:100FC000759710E59620E7FB784EE6247F7004784D
:100FD0005E7606AF2A228F408D418B428A43894438
:100FE000E59620E7FBE5404420F596E542146013C2
:100FF0002403601A146020147026AD44AF4112150A
:101000007A801DAC43AD44AF4112153B8012AD4414
:10101000AF4112158E8009AC43AD44AF4112150E9D
:1010200030071CE540D394004015AF4012164675BA
:101030009691E59620E7FB439701E59620E7FB2292
:10104000752949A9297A007B007D08E4FF12124D19
:10105000759611759740E59620E7FBE5292402F87F
:10106000E6FC08E6FAECFFEAFEE5292402F8A6060B
:1010700008A607E5292404F8E6FC08E6FAECFFEAEE
:10108000FEE5292404F8A60608A607E5292406F8A3
:10109000E6FC08E6FAECFFEAFEE5292406F8A606D7
:1010A00008A60722752AFF784BE6FE08E6FFC394E0
:1010B00080EE9400504D7850E6184670467849E628
:1010C000541F703F784EE6184670387847E6B403F0
:1010D0000BEF4E60197F0412139280127847E6B42A
:1010E000040F784CE6184670057F03121392E4F55E
:1010F0002AE52A700EF596784CE64480F597E59639
:1011000020E7FBAF2A228F2FE4F531E52F6005C3DE
:10111000940240127BFF7A1179657D4D7C00121696
:10112000AB7531FC8036E5E6A2E1920753E6FDE5BA
:101130002F75F007A42452F98930E5302405F8E62C
:1011400064016018E52F1470057F011212C9E530A3
:101150002405F87601E5302406F8E4F63007034369
:10116000E602AF3122463A5C53696C69636F6E4C9C
:101170006162735C53696D706C69636974795374EF
:101180007564696F5C76335C646576656C6F7065F9
:10119000725C73646B735C7369383035315C7633C1
:1011A0005C4C69625C65666D385F7573625C737216
:1011B000635C65666D385F757362642E630012153B
:1011C000E24006E5C9A2E6403C53D7BC53A9CF4351
:1011D000A910C206E5C920E7047F0180027F00BF95
:1011E000010DD20543C910E4FF0FBF03FC8002C20A
:1011F0000543B2201215E240F830050353C9EF123F
:10120000129443D740227FFF784EE61846703D186F
:10121000E6184670377850E664011846702E784913
:10122000E6FE30E727541F70237847E6B404087BB6
:10123000FF7A1679A9800C7847E6B4060F7B007A0E
:101240000079457D017C001214BAE4FF228F2B8DBA
:101250002C8B2D8A2E892FE52CD394004035E596D2
:1012600020E7FBE52B44E0F596E52D1460112403FF
:10127000601824FE701DAD2FAB2BAF2C0214D7AC21
:101280002EAD2FAB2BAF2C02145DAD2FAB2BAF2CA3
:1012900012147E2243B283E5B920E529E4F5B9436F
:1012A000B980FFFE0FBF00010EBE01F8BFF4F54389
:1012B000B940E4FEFF0FBF00010EBE01F8BFF4F518
:1012C000E5B930E5FB53A9CF221216467596117584
:1012D0009708E59620E7FB759691E59620E7FBE5F4
:1012E0009720E3F3759611759708E59620E7FB754F
:1012F0009691E59620E7FBE59720E3F322121696F8
:101300007BFF7A1779A0120AE1D2AFE5A020E002B4
:10131000D200E5A020E102D201E5A020E202D20243
:10132000E5A020E302D203E5A020E4DFD20480DBC5
:101330007FFF784EE6FE784CE6FDEEC39401502028
:101340007847E6B4061A7850E618467013ED701028
:101350007849E6541FFEBE0107C205121525E4FFB9
:101360002278577601785E760675960F75978FE529
:101370009620E7FB759601759701E59620E7FB75CA
:10138000960B75970FE59620E7FB7F0312139202E9
:1013900016AD8F2B7847E6F52CC394054009E52B55
:1013A0009405500312143CE52BB405047848A62C90
:1013B0007847A62BE52C652B6007AD2BAF2C1213BD
:1013C000F122E4FE12164630060BD3ED9420EC9485
:1013D0000050027E803008034306407596117597D1
:1013E00040E59620E7FB7596128E97E59620E7FB81
:1013F000228F2D8D2EE52EC394055006C205C20600
:101400008016E52EB405077F01121106800AE52E2D
:10141000B406057F181215A222AD07ED4480F5969B
:10142000E59620E7FBAF97EF7F00FEED144480F5D3
:1014300096E59620E7FBAD97ED420722E5E6A2E1AF
:10144000920553E6FD752D01AF2D121106052DE510
:101450002DC3940240F230050343E602228D828CB4
:10146000831FEF600BE59620E7FBE597F0A380F183
:10147000E59620E7FBEB4420F596E597F022A805DA
:101480001FEF600BE59620E7FBE597F20880F1E59A
:101490009620E7FBEB4420F596E597F222E4FFFE69
:1014A00075B9800FBF00010EEF64144E70F543B99B
:1014B000C0E5B930E5FB75A902227857E6B40116FC
:1014C0007852A60308A60208A60108A60408A605E5
:1014D000087602E408F622A8051FEF600AE59620C8
:1014E000E7FBA6970880F2E59620E7FBEB4420F5A2
:1014F00096A69722E508D39400400CE50875F00401
:10150000A485F009F50A22750900750A18228D8252
:101510008C83AE071FEE600CE59620E7FBE493F5A5
:1015200097A380EE22300504785E7601D206C207CA
:10153000C2087D407C007F010213C28D828C83AE85
:10154000071FEE600BE59620E7FBE0F597A380EF21
:1015500022E4FF1216467857760575961175972086
:10156000E59620E7FB22D3E50A9400E509940040C4
:1015700008E50A150A7002150922A805AE071FEE34
:10158000600BE59620E7FBE6F5970880EF22A805BB
:10159000AE071FEE600BE59620E7FBE2F5970880AB
:1015A000EF22EF600AC39406500575080680028F8B
:1015B000080214F47847E6C3940240087F0512132A
:1015C000921211BE22C109010E00C101C102C10364
:1015D000C104C10000E50A450970051214F4D322C4
:1015E000C322759681E59620E7FBE597A2E1227577
:1015F0009691E59620E7FBE597A2E422759691E5A2
:101600009620E7FBE597A2E222759691E59620E702
:10161000FBE597A2E122759691E59620E7FBE59719
:10162000A2E5228F2C8D2D8A2E8B2FE4FEFF2275B2
:101630009691E59620E7FBE59713227857760143CC
:10164000D78043D7402275960E8F97E59620E7FB0B
:1016500022759686E59620E7FBAF9722759682E580
:101660009620E7FBAF9722759684E59620E7FBAFBF
:10167000972275968EE59620E7FBAF972275969692
:10168000E59620E7FBAF9722E508C37001D32278E7
:1016900048E6FF0213921216A202149D7F0D121447
:1016A0001922E4F5A622AF0822000080FE222205BE
:1016B000010906A101050719E029E71500250175B3
:1016C0000195088102150025017501950881011910
:1016D000002965150025657508950681000508191E
:1016E00001290315002501750195039102750195E6
:1016F000059101C01201000200000040C41001FE6B
:1017000000010102030109022200010104C03209A3
:101710000400000103000105092111010001224517
:10172000000705810340001804030904012A03533C
:10173000696C69636F6E204C61626F7261746F7265
:1017400069657300012C0345464D382055534220EE
:10175000484944204B6579626F617264000122033D
:1017600030313233343536373839414243444546D7
:1017700000011403436F6E66696720233100011A6C
:1017800003484944204B6579626F61726400FF171A
:1017900028FF172CFF1744FF175DFF1771FF177EF7
:1017A000FF16F4FF1706FF178E060000000000006A
:1017B000000000001E000000000000001F000000EC
:1017C00000000000200000000000000021000000D8
:1017D00000000000140000000000000008000000ED
:1017E000000000001C0000000000000005000000D8
:1017F00000000000120000000000000004000000D3
:1018000000000000150000000000000007000000BC
:10181000000000002C0000000000021E1F20211408
:10182000021E1F2107141A08150000000000000006
:0118300000B7
:00000001FF
